0110599330000459884326000000000000000000000013060001090302REFERENCIA SDASSAD            email.empresa@gmail.com                           1
0110599330000459884326000000000000000000000013060001090302REFERENCIA SDASSAD            email.empresa@gmail.com                           1
0110599330000459884326000000000000000000000013060001090302REFERENCIA SDASSAD            email.empresa@gmail.com                           1
0110599330000459884326000000000000000000000013060001090302REFERENCIA SDASSAD            email.empresa@gmail.com                           1
0110599330000459884326000000000000000000000013060001090302REFERENCIA SDASSAD            email.empresa@gmail.com                           1
0110599330000459884326000000000000000000000013060001090302REFERENCIA SDASSAD            email.empresa@gmail.com                           1
0110599330000459884326000000000000000000000013060001090302REFERENCIA SDASSAD            email.empresa@gmail.com                           1
0110599330000459884326000000000000000000000013060001090302REFERENCIA SDASSAD            email.empresa@gmail.com                           1
0110599330000459884326000000000000000000000013060001090302REFERENCIA SDASSAD            email.empresa@gmail.com                           1
0110599330000459884326000000000000000000000013060001090302REFERENCIA SDASSAD            email.empresa@gmail.com                           1
0110599330000459884326000000000000000000000013060001090302REFERENCIA SDASSAD            email.empresa@gmail.com                           1
0110599330000459884326000000000000000000000013060001090302REFERENCIA SDASSAD            email.empresa@gmail.com                           1
0110599330000459884326000000000000000000000013060001090302REFERENCIA SDASSAD            email.empresa@gmail.com                           1
0110599330000459884326000000000000000000000013060001090302REFERENCIA SDASSAD            email.empresa@gmail.com                           1
0110599330000459884326000000000000000000000013060001090302REFERENCIA SDASSAD            email.empresa@gmail.com                           1
0110599330000459884326000000000000000000000013060001090302REFERENCIA SDASSAD            email.empresa@gmail.com                           1
0110599330000459884326000000000000000000000013060001090302REFERENCIA SDASSAD            email.empresa@gmail.com                           1
0110599330000459884326000000000000000000000013060001090302REFERENCIA SDASSAD            email.empresa@gmail.com                           1
0110599330000459884326000000000000000000000013060001090302REFERENCIA SDASSAD            email.empresa@gmail.com                           1
0110599330000459884326000000000000000000000013060001090302REFERENCIA SDASSAD            email.empresa@gmail.com                           1
0110599330000459884326000000000000000000000013060001090302REFERENCIA SDASSAD            email.empresa@gmail.com                           1
0110599330000459884326000000000000000000000013060001090302REFERENCIA SDASSAD            email.empresa@gmail.com                           1
0110599330000459884326000000000000000000000013060001090302REFERENCIA SDASSAD            email.empresa@gmail.com                           1
0110599330000459884326000000000000000000000013060001090302REFERENCIA SDASSAD            email.empresa@gmail.com                           1
0110599330000459884326000000000000000000000013060001090302REFERENCIA SDASSAD            email.empresa@gmail.com                           1
0110599330000459884326000000000000000000000013060001090302REFERENCIA SDASSAD            email.empresa@gmail.com                           1
0110599330000459884326000000000000000000000013060001090302REFERENCIA SDASSAD            email.empresa@gmail.com                           1
0110599330000459884326000000000000000000000013060001090302REFERENCIA SDASSAD            email.empresa@gmail.com                           1
0110599330000459884326000000000000000000000013060001090302REFERENCIA SDASSAD            email.empresa@gmail.com                           1
0110599330000459884326000000000000000000000013060001090302REFERENCIA SDASSAD            email.empresa@gmail.com                           1
0110599330000459884326000000000000000000000013060001090302REFERENCIA SDASSAD            email.empresa@gmail.com                           1
0110599330000459884326000000000000000000000013060001090302REFERENCIA SDASSAD            email.empresa@gmail.com                           1
0110599330000459884326000000000000000000000013060001090302REFERENCIA SDASSAD            email.empresa@gmail.com                           1
0110599330000459884326000000000000000000000013060001090302REFERENCIA SDASSAD            email.empresa@gmail.com                           1
0110599330000459884326000000000000000000000013060001090302REFERENCIA SDASSAD            email.empresa@gmail.com                           1
0110599330000459884326000000000000000000000013060001090302REFERENCIA SDASSAD            email.empresa@gmail.com                           1
0110599330000459884326000000000000000000000013060001090302REFERENCIA SDASSAD            email.empresa@gmail.com                           1
0110599330000459884326000000000000000000000013060001090302REFERENCIA SDASSAD            email.empresa@gmail.com                           1
0110599330000459884326000000000000000000000013060001090302REFERENCIA SDASSAD            email.empresa@gmail.com                           1
0110599330000459884326000000000000000000000013060001090302REFERENCIA SDASSAD            email.empresa@gmail.com                           1
0110599330000459884326000000000000000000000013060001090302REFERENCIA SDASSAD            email.empresa@gmail.com                           1
0110599330000459884326000000000000000000000013060001090302REFERENCIA SDASSAD            email.empresa@gmail.com                           1
0110599330000459884326000000000000000000000013060001090302REFERENCIA SDASSAD            email.empresa@gmail.com                           1
0110599330000459884326000000000000000000000013060001090302REFERENCIA SDASSAD            email.empresa@gmail.com                           1
0110599330000459884326000000000000000000000013060001090302REFERENCIA SDASSAD            email.empresa@gmail.com                           1
0110599330000459884326000000000000000000000013060001090302REFERENCIA SDASSAD            email.empresa@gmail.com                           1
0110599330000459884326000000000000000000000013060001090302REFERENCIA SDASSAD            email.empresa@gmail.com                           1
0110599330000459884326000000000000000000000013060001090302REFERENCIA SDASSAD            email.empresa@gmail.com                           1
0110599330000459884326000000000000000000000013060001090302REFERENCIA SDASSAD            email.empresa@gmail.com                           1
0110599330000459884326000000000000000000000013060001090302REFERENCIA SDASSAD            email.empresa@gmail.com                           1
0110599330000459884326000000000000000000000013060001090302REFERENCIA SDASSAD            email.empresa@gmail.com                           1
0110599330000459884326000000000000000000000013060001090302REFERENCIA SDASSAD            email.empresa@gmail.com                           1
0110599330000459884326000000000000000000000013060001090302REFERENCIA SDASSAD            email.empresa@gmail.com                           1
0110599330000459884326000000000000000000000013060001090302REFERENCIA SDASSAD            email.empresa@gmail.com                           1
0110599330000459884326000000000000000000000013060001090302REFERENCIA SDASSAD            email.empresa@gmail.com                           1
0110599330000459884326000000000000000000000013060001090302REFERENCIA SDASSAD            email.empresa@gmail.com                           1
0110599330000459884326000000000000000000000013060001090302REFERENCIA SDASSAD            email.empresa@gmail.com                           1
0110599330000459884326000000000000000000000013060001090302REFERENCIA SDASSAD            email.empresa@gmail.com                           1
0110599330000459884326000000000000000000000013060001090302REFERENCIA SDASSAD            email.empresa@gmail.com                           1
0110599330000459884326000000000000000000000013060001090302REFERENCIA SDASSAD            email.empresa@gmail.com                           1
0110599330000459884326000000000000000000000013060001090302REFERENCIA SDASSAD            email.empresa@gmail.com                           1
0110599330000459884326000000000000000000000013060001090302REFERENCIA SDASSAD            email.empresa@gmail.com                           1
0110599330000459884326000000000000000000000013060001090302REFERENCIA SDASSAD            email.empresa@gmail.com                           1
0110599330000459884326000000000000000000000013060001090302REFERENCIA SDASSAD            email.empresa@gmail.com                           1
0110599330000459884326000000000000000000000013060001090302REFERENCIA SDASSAD            email.empresa@gmail.com                           1
0110599330000459884326000000000000000000000013060001090302REFERENCIA SDASSAD            email.empresa@gmail.com                           1
0110599330000459884326000000000000000000000013060001090302REFERENCIA SDASSAD            email.empresa@gmail.com                           1
0110599330000459884326000000000000000000000013060001090302REFERENCIA SDASSAD            email.empresa@gmail.com                           1
0110599330000459884326000000000000000000000013060001090302REFERENCIA SDASSAD            email.empresa@gmail.com                           1
0110599330000459884326000000000000000000000013060001090302REFERENCIA SDASSAD            email.empresa@gmail.com                           1
0110599330000459884326000000000000000000000013060001090302REFERENCIA SDASSAD            email.empresa@gmail.com                           1
0110599330000459884326000000000000000000000013060001090302REFERENCIA SDASSAD            email.empresa@gmail.com                           1
0110599330000459884326000000000000000000000013060001090302REFERENCIA SDASSAD            email.empresa@gmail.com                           1
0110599330000459884326000000000000000000000013060001090302REFERENCIA SDASSAD            email.empresa@gmail.com                           1
0110599330000459884326000000000000000000000013060001090302REFERENCIA SDASSAD            email.empresa@gmail.com                           1
0110599330000459884326000000000000000000000013060001090302REFERENCIA SDASSAD            email.empresa@gmail.com                           1
0110599330000459884326000000000000000000000013060001090302REFERENCIA SDASSAD            email.empresa@gmail.com                           1
0110599330000459884326000000000000000000000013060001090302REFERENCIA SDASSAD            email.empresa@gmail.com                           1
0110599330000459884326000000000000000000000013060001090302REFERENCIA SDASSAD            email.empresa@gmail.com                           1
0110599330000459884326000000000000000000000013060001090302REFERENCIA SDASSAD            email.empresa@gmail.com                           1
0110599330000459884326000000000000000000000013060001090302REFERENCIA SDASSAD            email.empresa@gmail.com                           1
0110599330000459884326000000000000000000000013060001090302REFERENCIA SDASSAD            email.empresa@gmail.com                           1
0110599330000459884326000000000000000000000013060001090302REFERENCIA SDASSAD            email.empresa@gmail.com                           1
0110599330000459884326000000000000000000000013060001090302REFERENCIA SDASSAD            email.empresa@gmail.com                           1
0110599330000459884326000000000000000000000013060001090302REFERENCIA SDASSAD            email.empresa@gmail.com                           1
0110599330000459884326000000000000000000000013060001090302REFERENCIA SDASSAD            email.empresa@gmail.com                           1
0110599330000459884326000000000000000000000013060001090302REFERENCIA SDASSAD            email.empresa@gmail.com                           1
0110599330000459884326000000000000000000000013060001090302REFERENCIA SDASSAD            email.empresa@gmail.com                           1
0110599330000459884326000000000000000000000013060001090302REFERENCIA SDASSAD            email.empresa@gmail.com                           1
0110599330000459884326000000000000000000000013060001090302REFERENCIA SDASSAD            email.empresa@gmail.com                           1
0110599330000459884326000000000000000000000013060001090302REFERENCIA SDASSAD            email.empresa@gmail.com                           1
0110599330000459884326000000000000000000000013060001090302REFERENCIA SDASSAD            email.empresa@gmail.com                           1
0110599330000459884326000000000000000000000013060001090302REFERENCIA SDASSAD            email.empresa@gmail.com                           1
0110599330000459884326000000000000000000000013060001090302REFERENCIA SDASSAD            email.empresa@gmail.com                           1
0110599330000459884326000000000000000000000013060001090302REFERENCIA SDASSAD            email.empresa@gmail.com                           1
0110599330000459884326000000000000000000000013060001090302REFERENCIA SDASSAD            email.empresa@gmail.com                           1
0110599330000459884326000000000000000000000013060001090302REFERENCIA SDASSAD            email.empresa@gmail.com                           1
0110599330000459884326000000000000000000000013060001090302REFERENCIA SDASSAD            email.empresa@gmail.com                           1
0110599330000459884326000000000000000000000013060001090302REFERENCIA SDASSAD            email.empresa@gmail.com                           1
0110599330000459884326000000000000000000000013060001090302REFERENCIA SDASSAD            email.empresa@gmail.com                           1
0110599330000459884326000000000000000000000013060001090302REFERENCIA SDASSAD            email.empresa@gmail.com                           1
0110599330000459884326000000000000000000000013060001090302REFERENCIA SDASSAD            email.empresa@gmail.com                           1
0110599330000459884326000000000000000000000013060001090302REFERENCIA SDASSAD            email.empresa@gmail.com                           1
0110599330000459884326000000000000000000000013060001090302REFERENCIA SDASSAD            email.empresa@gmail.com                           1
0110599330000459884326000000000000000000000013060001090302REFERENCIA SDASSAD            email.empresa@gmail.com                           1
0110599330000459884326000000000000000000000013060001090302REFERENCIA SDASSAD            email.empresa@gmail.com                           1
0110599330000459884326000000000000000000000013060001090302REFERENCIA SDASSAD            email.empresa@gmail.com                           1
0110599330000459884326000000000000000000000013060001090302REFERENCIA SDASSAD            email.empresa@gmail.com                           1
0110599330000459884326000000000000000000000013060001090302REFERENCIA SDASSAD            email.empresa@gmail.com                           1
0110599330000459884326000000000000000000000013060001090302REFERENCIA SDASSAD            email.empresa@gmail.com                           1
0110599330000459884326000000000000000000000013060001090302REFERENCIA SDASSAD            email.empresa@gmail.com                           1
0110599330000459884326000000000000000000000013060001090302REFERENCIA SDASSAD            email.empresa@gmail.com                           1
0110599330000459884326000000000000000000000013060001090302REFERENCIA SDASSAD            email.empresa@gmail.com                           1
0110599330000459884326000000000000000000000013060001090302REFERENCIA SDASSAD            email.empresa@gmail.com                           1
0110599330000459884326000000000000000000000013060001090302REFERENCIA SDASSAD            email.empresa@gmail.com                           1
0110599330000459884326000000000000000000000013060001090302REFERENCIA SDASSAD            email.empresa@gmail.com                           1
0110599330000459884326000000000000000000000013060001090302REFERENCIA SDASSAD            email.empresa@gmail.com                           1
0110599330000459884326000000000000000000000013060001090302REFERENCIA SDASSAD            email.empresa@gmail.com                           1
0110599330000459884326000000000000000000000013060001090302REFERENCIA SDASSAD            email.empresa@gmail.com                           1
0110599330000459884326000000000000000000000013060001090302REFERENCIA SDASSAD            email.empresa@gmail.com                           1
0110599330000459884326000000000000000000000013060001090302REFERENCIA SDASSAD            email.empresa@gmail.com                           1
0110599330000459884326000000000000000000000013060001090302REFERENCIA SDASSAD            email.empresa@gmail.com                           1
0110599330000459884326000000000000000000000013060001090302REFERENCIA SDASSAD            email.empresa@gmail.com                           1
0110599330000459884326000000000000000000000013060001090302REFERENCIA SDASSAD            email.empresa@gmail.com                           1
0110599330000459884326000000000000000000000013060001090302REFERENCIA SDASSAD            email.empresa@gmail.com                           1
0110599330000459884326000000000000000000000013060001090302REFERENCIA SDASSAD            email.empresa@gmail.com                           1
0110599330000459884326000000000000000000000013060001090302REFERENCIA SDASSAD            email.empresa@gmail.com                           1
0110599330000459884326000000000000000000000013060001090302REFERENCIA SDASSAD            email.empresa@gmail.com                           1
0110599330000459884326000000000000000000000013060001090302REFERENCIA SDASSAD            email.empresa@gmail.com                           1
0110599330000459884326000000000000000000000013060001090302REFERENCIA SDASSAD            email.empresa@gmail.com                           1
0110599330000459884326000000000000000000000013060001090302REFERENCIA SDASSAD            email.empresa@gmail.com                           1
0110599330000459884326000000000000000000000013060001090302REFERENCIA SDASSAD            email.empresa@gmail.com                           1
0110599330000459884326000000000000000000000013060001090302REFERENCIA SDASSAD            email.empresa@gmail.com                           1
0110599330000459884326000000000000000000000013060001090302REFERENCIA SDASSAD            email.empresa@gmail.com                           1
0110599330000459884326000000000000000000000013060001090302REFERENCIA SDASSAD            email.empresa@gmail.com                           1
0110599330000459884326000000000000000000000013060001090302REFERENCIA SDASSAD            email.empresa@gmail.com                           1
0110599330000459884326000000000000000000000013060001090302REFERENCIA SDASSAD            email.empresa@gmail.com                           1
0110599330000459884326000000000000000000000013060001090302REFERENCIA SDASSAD            email.empresa@gmail.com                           1
0110599330000459884326000000000000000000000013060001090302REFERENCIA SDASSAD            email.empresa@gmail.com                           1
0110599330000459884326000000000000000000000013060001090302REFERENCIA SDASSAD            email.empresa@gmail.com                           1
0110599330000459884326000000000000000000000013060001090302REFERENCIA SDASSAD            email.empresa@gmail.com                           1
0110599330000459884326000000000000000000000013060001090302REFERENCIA SDASSAD            email.empresa@gmail.com                           1
0110599330000459884326000000000000000000000013060001090302REFERENCIA SDASSAD            email.empresa@gmail.com                           1
0110599330000459884326000000000000000000000013060001090302REFERENCIA SDASSAD            email.empresa@gmail.com                           1
0110599330000459884326000000000000000000000013060001090302REFERENCIA SDASSAD            email.empresa@gmail.com                           1
0110599330000459884326000000000000000000000013060001090302REFERENCIA SDASSAD            email.empresa@gmail.com                           1
0110599330000459884326000000000000000000000013060001090302REFERENCIA SDASSAD            email.empresa@gmail.com                           1
0110599330000459884326000000000000000000000013060001090302REFERENCIA SDASSAD            email.empresa@gmail.com                           1
0110599330000459884326000000000000000000000013060001090302REFERENCIA SDASSAD            email.empresa@gmail.com                           1
0110599330000459884326000000000000000000000013060001090302REFERENCIA SDASSAD            email.empresa@gmail.com                           1
0110599330000459884326000000000000000000000013060001090302REFERENCIA SDASSAD            email.empresa@gmail.com                           1
0110599330000459884326000000000000000000000013060001090302REFERENCIA SDASSAD            email.empresa@gmail.com                           1
0110599330000459884326000000000000000000000013060001090302REFERENCIA SDASSAD            email.empresa@gmail.com                           1
0110599330000459884326000000000000000000000013060001090302REFERENCIA SDASSAD            email.empresa@gmail.com                           1
0110599330000459884326000000000000000000000013060001090302REFERENCIA SDASSAD            email.empresa@gmail.com                           1
0110599330000459884326000000000000000000000013060001090302REFERENCIA SDASSAD            email.empresa@gmail.com                           1
0110599330000459884326000000000000000000000013060001090302REFERENCIA SDASSAD            email.empresa@gmail.com                           1
0110599330000459884326000000000000000000000013060001090302REFERENCIA SDASSAD            email.empresa@gmail.com                           1
0110599330000459884326000000000000000000000013060001090302REFERENCIA SDASSAD            email.empresa@gmail.com                           1
0110599330000459884326000000000000000000000013060001090302REFERENCIA SDASSAD            email.empresa@gmail.com                           1
0110599330000459884326000000000000000000000013060001090302REFERENCIA SDASSAD            email.empresa@gmail.com                           1
0110599330000459884326000000000000000000000013060001090302REFERENCIA SDASSAD            email.empresa@gmail.com                           1
0110599330000459884326000000000000000000000013060001090302REFERENCIA SDASSAD            email.empresa@gmail.com                           1
0110599330000459884326000000000000000000000013060001090302REFERENCIA SDASSAD            email.empresa@gmail.com                           1
0110599330000459884326000000000000000000000013060001090302REFERENCIA SDASSAD            email.empresa@gmail.com                           1
0110599330000459884326000000000000000000000013060001090302REFERENCIA SDASSAD            email.empresa@gmail.com                           1
0110599330000459884326000000000000000000000013060001090302REFERENCIA SDASSAD            email.empresa@gmail.com                           1
0110599330000459884326000000000000000000000013060001090302REFERENCIA SDASSAD            email.empresa@gmail.com                           1
0110599330000459884326000000000000000000000013060001090302REFERENCIA SDASSAD            email.empresa@gmail.com                           1
0110599330000459884326000000000000000000000013060001090302REFERENCIA SDASSAD            email.empresa@gmail.com                           1
0110599330000459884326000000000000000000000013060001090302REFERENCIA SDASSAD            email.empresa@gmail.com                           1
0110599330000459884326000000000000000000000013060001090302REFERENCIA SDASSAD            email.empresa@gmail.com                           1
0110599330000459884326000000000000000000000013060001090302REFERENCIA SDASSAD            email.empresa@gmail.com                           1
0110599330000459884326000000000000000000000013060001090302REFERENCIA SDASSAD            email.empresa@gmail.com                           1
0110599330000459884326000000000000000000000013060001090302REFERENCIA SDASSAD            email.empresa@gmail.com                           1
0110599330000459884326000000000000000000000013060001090302REFERENCIA SDASSAD            email.empresa@gmail.com                           1
0110599330000459884326000000000000000000000013060001090302REFERENCIA SDASSAD            email.empresa@gmail.com                           1
0110599330000459884326000000000000000000000013060001090302REFERENCIA SDASSAD            email.empresa@gmail.com                           1
0110599330000459884326000000000000000000000013060001090302REFERENCIA SDASSAD            email.empresa@gmail.com                           1
0110599330000459884326000000000000000000000013060001090302REFERENCIA SDASSAD            email.empresa@gmail.com                           1
0110599330000459884326000000000000000000000013060001090302REFERENCIA SDASSAD            email.empresa@gmail.com                           1
0110599330000459884326000000000000000000000013060001090302REFERENCIA SDASSAD            email.empresa@gmail.com                           1
0110599330000459884326000000000000000000000013060001090302REFERENCIA SDASSAD            email.empresa@gmail.com                           1
0110599330000459884326000000000000000000000013060001090302REFERENCIA SDASSAD            email.empresa@gmail.com                           1
0110599330000459884326000000000000000000000013060001090302REFERENCIA SDASSAD            email.empresa@gmail.com                           1
0110599330000459884326000000000000000000000013060001090302REFERENCIA SDASSAD            email.empresa@gmail.com                           1
0110599330000459884326000000000000000000000013060001090302REFERENCIA SDASSAD            email.empresa@gmail.com                           1
0110599330000459884326000000000000000000000013060001090302REFERENCIA SDASSAD            email.empresa@gmail.com                           1
0110599330000459884326000000000000000000000013060001090302REFERENCIA SDASSAD            email.empresa@gmail.com                           1
0110599330000459884326000000000000000000000013060001090302REFERENCIA SDASSAD            email.empresa@gmail.com                           1
0110599330000459884326000000000000000000000013060001090302REFERENCIA SDASSAD            email.empresa@gmail.com                           1
0110599330000459884326000000000000000000000013060001090302REFERENCIA SDASSAD            email.empresa@gmail.com                           1
0110599330000459884326000000000000000000000013060001090302REFERENCIA SDASSAD            email.empresa@gmail.com                           1
0110599330000459884326000000000000000000000013060001090302REFERENCIA SDASSAD            email.empresa@gmail.com                           1
0110599330000459884326000000000000000000000013060001090302REFERENCIA SDASSAD            email.empresa@gmail.com                           1
0110599330000459884326000000000000000000000013060001090302REFERENCIA SDASSAD            email.empresa@gmail.com                           1
0110599330000459884326000000000000000000000013060001090302REFERENCIA SDASSAD            email.empresa@gmail.com                           1
0110599330000459884326000000000000000000000013060001090302REFERENCIA SDASSAD            email.empresa@gmail.com                           1
0110599330000459884326000000000000000000000013060001090302REFERENCIA SDASSAD            email.empresa@gmail.com                           1
0110599330000459884326000000000000000000000013060001090302REFERENCIA SDASSAD            email.empresa@gmail.com                           1
0110599330000459884326000000000000000000000013060001090302REFERENCIA SDASSAD            email.empresa@gmail.com                           1
0110599330000459884326000000000000000000000013060001090302REFERENCIA SDASSAD            email.empresa@gmail.com                           1
0110599330000459884326000000000000000000000013060001090302REFERENCIA SDASSAD            email.empresa@gmail.com                           1
0110599330000459884326000000000000000000000013060001090302REFERENCIA SDASSAD            email.empresa@gmail.com                           1
0110599330000459884326000000000000000000000013060001090302REFERENCIA SDASSAD            email.empresa@gmail.com                           1
0110599330000459884326000000000000000000000013060001090302REFERENCIA SDASSAD            email.empresa@gmail.com                           1
0110599330000459884326000000000000000000000013060001090302REFERENCIA SDASSAD            email.empresa@gmail.com                           1
0110599330000459884326000000000000000000000013060001090302REFERENCIA SDASSAD            email.empresa@gmail.com                           1
0110599330000459884326000000000000000000000013060001090302REFERENCIA SDASSAD            email.empresa@gmail.com                           1
0110599330000459884326000000000000000000000013060001090302REFERENCIA SDASSAD            email.empresa@gmail.com                           1
0110599330000459884326000000000000000000000013060001090302REFERENCIA SDASSAD            email.empresa@gmail.com                           1
0110599330000459884326000000000000000000000013060001090302REFERENCIA SDASSAD            email.empresa@gmail.com                           1
0110599330000459884326000000000000000000000013060001090302REFERENCIA SDASSAD            email.empresa@gmail.com                           1
0110599330000459884326000000000000000000000013060001090302REFERENCIA SDASSAD            email.empresa@gmail.com                           1
0110599330000459884326000000000000000000000013060001090302REFERENCIA SDASSAD            email.empresa@gmail.com                           1
0110599330000459884326000000000000000000000013060001090302REFERENCIA SDASSAD            email.empresa@gmail.com                           1
0110599330000459884326000000000000000000000013060001090302REFERENCIA SDASSAD            email.empresa@gmail.com                           1
0110599330000459884326000000000000000000000013060001090302REFERENCIA SDASSAD            email.empresa@gmail.com                           1
0110599330000459884326000000000000000000000013060001090302REFERENCIA SDASSAD            email.empresa@gmail.com                           1
0110599330000459884326000000000000000000000013060001090302REFERENCIA SDASSAD            email.empresa@gmail.com                           1
0110599330000459884326000000000000000000000013060001090302REFERENCIA SDASSAD            email.empresa@gmail.com                           1
0110599330000459884326000000000000000000000013060001090302REFERENCIA SDASSAD            email.empresa@gmail.com                           1
0110599330000459884326000000000000000000000013060001090302REFERENCIA SDASSAD            email.empresa@gmail.com                           1
0110599330000459884326000000000000000000000013060001090302REFERENCIA SDASSAD            email.empresa@gmail.com                           1
0110599330000459884326000000000000000000000013060001090302REFERENCIA SDASSAD            email.empresa@gmail.com                           1
0110599330000459884326000000000000000000000013060001090302REFERENCIA SDASSAD            email.empresa@gmail.com                           1
0110599330000459884326000000000000000000000013060001090302REFERENCIA SDASSAD            email.empresa@gmail.com                           1
0110599330000459884326000000000000000000000013060001090302REFERENCIA SDASSAD            email.empresa@gmail.com                           1
0110599330000459884326000000000000000000000013060001090302REFERENCIA SDASSAD            email.empresa@gmail.com                           1
0110599330000459884326000000000000000000000013060001090302REFERENCIA SDASSAD            email.empresa@gmail.com                           1
0110599330000459884326000000000000000000000013060001090302REFERENCIA SDASSAD            email.empresa@gmail.com                           1
0110599330000459884326000000000000000000000013060001090302REFERENCIA SDASSAD            email.empresa@gmail.com                           1
0110599330000459884326000000000000000000000013060001090302REFERENCIA SDASSAD            email.empresa@gmail.com                           1
0110599330000459884326000000000000000000000013060001090302REFERENCIA SDASSAD            email.empresa@gmail.com                           1
0110599330000459884326000000000000000000000013060001090302REFERENCIA SDASSAD            email.empresa@gmail.com                           1
0110599330000459884326000000000000000000000013060001090302REFERENCIA SDASSAD            email.empresa@gmail.com                           1
0110599330000459884326000000000000000000000013060001090302REFERENCIA SDASSAD            email.empresa@gmail.com                           1
0110599330000459884326000000000000000000000013060001090302REFERENCIA SDASSAD            email.empresa@gmail.com                           1
0110599330000459884326000000000000000000000013060001090302REFERENCIA SDASSAD            email.empresa@gmail.com                           1
0110599330000459884326000000000000000000000013060001090302REFERENCIA SDASSAD            email.empresa@gmail.com                           1
0110599330000459884326000000000000000000000013060001090302REFERENCIA SDASSAD            email.empresa@gmail.com                           1
0110599330000459884326000000000000000000000013060001090302REFERENCIA SDASSAD            email.empresa@gmail.com                           1
0110599330000459884326000000000000000000000013060001090302REFERENCIA SDASSAD            email.empresa@gmail.com                           1
0110599330000459884326000000000000000000000013060001090302REFERENCIA SDASSAD            email.empresa@gmail.com                           1
0110599330000459884326000000000000000000000013060001090302REFERENCIA SDASSAD            email.empresa@gmail.com                           1
0110599330000459884326000000000000000000000013060001090302REFERENCIA SDASSAD            email.empresa@gmail.com                           1
0110599330000459884326000000000000000000000013060001090302REFERENCIA SDASSAD            email.empresa@gmail.com                           1
0110599330000459884326000000000000000000000013060001090302REFERENCIA SDASSAD            email.empresa@gmail.com                           1
0110599330000459884326000000000000000000000013060001090302REFERENCIA SDASSAD            email.empresa@gmail.com                           1
0110599330000459884326000000000000000000000013060001090302REFERENCIA SDASSAD            email.empresa@gmail.com                           1
0110599330000459884326000000000000000000000013060001090302REFERENCIA SDASSAD            email.empresa@gmail.com                           1
0110599330000459884326000000000000000000000013060001090302REFERENCIA SDASSAD            email.empresa@gmail.com                           1
0110599330000459884326000000000000000000000013060001090302REFERENCIA SDASSAD            email.empresa@gmail.com                           1
0110599330000459884326000000000000000000000013060001090302REFERENCIA SDASSAD            email.empresa@gmail.com                           1
0110599330000459884326000000000000000000000013060001090302REFERENCIA SDASSAD            email.empresa@gmail.com                           1
0110599330000459884326000000000000000000000013060001090302REFERENCIA SDASSAD            email.empresa@gmail.com                           1
0110599330000459884326000000000000000000000013060001090302REFERENCIA SDASSAD            email.empresa@gmail.com                           1
0110599330000459884326000000000000000000000013060001090302REFERENCIA SDASSAD            email.empresa@gmail.com                           1
0110599330000459884326000000000000000000000013060001090302REFERENCIA SDASSAD            email.empresa@gmail.com                           1
0110599330000459884326000000000000000000000013060001090302REFERENCIA SDASSAD            email.empresa@gmail.com                           1
0110599330000459884326000000000000000000000013060001090302REFERENCIA SDASSAD            email.empresa@gmail.com                           1
0110599330000459884326000000000000000000000013060001090302REFERENCIA SDASSAD            email.empresa@gmail.com                           1
0110599330000459884326000000000000000000000013060001090302REFERENCIA SDASSAD            email.empresa@gmail.com                           1
0110599330000459884326000000000000000000000013060001090302REFERENCIA SDASSAD            email.empresa@gmail.com                           1
0110599330000459884326000000000000000000000013060001090302REFERENCIA SDASSAD            email.empresa@gmail.com                           1
0110599330000459884326000000000000000000000013060001090302REFERENCIA SDASSAD            email.empresa@gmail.com                           1
0110599330000459884326000000000000000000000013060001090302REFERENCIA SDASSAD            email.empresa@gmail.com                           1
0110599330000459884326000000000000000000000013060001090302REFERENCIA SDASSAD            email.empresa@gmail.com                           1
0110599330000459884326000000000000000000000013060001090302REFERENCIA SDASSAD            email.empresa@gmail.com                           1
0110599330000459884326000000000000000000000013060001090302REFERENCIA SDASSAD            email.empresa@gmail.com                           1
0110599330000459884326000000000000000000000013060001090302REFERENCIA SDASSAD            email.empresa@gmail.com                           1
0110599330000459884326000000000000000000000013060001090302REFERENCIA SDASSAD            email.empresa@gmail.com                           1
0110599330000459884326000000000000000000000013060001090302REFERENCIA SDASSAD            email.empresa@gmail.com                           1
0110599330000459884326000000000000000000000013060001090302REFERENCIA SDASSAD            email.empresa@gmail.com                           1
0110599330000459884326000000000000000000000013060001090302REFERENCIA SDASSAD            email.empresa@gmail.com                           1
0110599330000459884326000000000000000000000013060001090302REFERENCIA SDASSAD            email.empresa@gmail.com                           1
0110599330000459884326000000000000000000000013060001090302REFERENCIA SDASSAD            email.empresa@gmail.com                           1
0110599330000459884326000000000000000000000013060001090302REFERENCIA SDASSAD            email.empresa@gmail.com                           1
0110599330000459884326000000000000000000000013060001090302REFERENCIA SDASSAD            email.empresa@gmail.com                           1
0110599330000459884326000000000000000000000013060001090302REFERENCIA SDASSAD            email.empresa@gmail.com                           1
0110599330000459884326000000000000000000000013060001090302REFERENCIA SDASSAD            email.empresa@gmail.com                           1
0110599330000459884326000000000000000000000013060001090302REFERENCIA SDASSAD            email.empresa@gmail.com                           1
0110599330000459884326000000000000000000000013060001090302REFERENCIA SDASSAD            email.empresa@gmail.com                           1
0110599330000459884326000000000000000000000013060001090302REFERENCIA SDASSAD            email.empresa@gmail.com                           1
0110599330000459884326000000000000000000000013060001090302REFERENCIA SDASSAD            email.empresa@gmail.com                           1
0110599330000459884326000000000000000000000013060001090302REFERENCIA SDASSAD            email.empresa@gmail.com                           1
0110599330000459884326000000000000000000000013060001090302REFERENCIA SDASSAD            email.empresa@gmail.com                           1
0110599330000459884326000000000000000000000013060001090302REFERENCIA SDASSAD            email.empresa@gmail.com                           1
0110599330000459884326000000000000000000000013060001090302REFERENCIA SDASSAD            email.empresa@gmail.com                           1
0110599330000459884326000000000000000000000013060001090302REFERENCIA SDASSAD            email.empresa@gmail.com                           1
0110599330000459884326000000000000000000000013060001090302REFERENCIA SDASSAD            email.empresa@gmail.com                           1
0110599330000459884326000000000000000000000013060001090302REFERENCIA SDASSAD            email.empresa@gmail.com                           1
0110599330000459884326000000000000000000000013060001090302REFERENCIA SDASSAD            email.empresa@gmail.com                           1
0110599330000459884326000000000000000000000013060001090302REFERENCIA SDASSAD            email.empresa@gmail.com                           1
0110599330000459884326000000000000000000000013060001090302REFERENCIA SDASSAD            email.empresa@gmail.com                           1
0110599330000459884326000000000000000000000013060001090302REFERENCIA SDASSAD            email.empresa@gmail.com                           1
0110599330000459884326000000000000000000000013060001090302REFERENCIA SDASSAD            email.empresa@gmail.com                           1
0110599330000459884326000000000000000000000013060001090302REFERENCIA SDASSAD            email.empresa@gmail.com                           1
0110599330000459884326000000000000000000000013060001090302REFERENCIA SDASSAD            email.empresa@gmail.com                           1
0110599330000459884326000000000000000000000013060001090302REFERENCIA SDASSAD            email.empresa@gmail.com                           1
0110599330000459884326000000000000000000000013060001090302REFERENCIA SDASSAD            email.empresa@gmail.com                           1
0110599330000459884326000000000000000000000013060001090302REFERENCIA SDASSAD            email.empresa@gmail.com                           1
0110599330000459884326000000000000000000000013060001090302REFERENCIA SDASSAD            email.empresa@gmail.com                           1
0110599330000459884326000000000000000000000013060001090302REFERENCIA SDASSAD            email.empresa@gmail.com                           1
0110599330000459884326000000000000000000000013060001090302REFERENCIA SDASSAD            email.empresa@gmail.com                           1
0110599330000459884326000000000000000000000013060001090302REFERENCIA SDASSAD            email.empresa@gmail.com                           1
0110599330000459884326000000000000000000000013060001090302REFERENCIA SDASSAD            email.empresa@gmail.com                           1
0110599330000459884326000000000000000000000013060001090302REFERENCIA SDASSAD            email.empresa@gmail.com                           1
0110599330000459884326000000000000000000000013060001090302REFERENCIA SDASSAD            email.empresa@gmail.com                           1
0110599330000459884326000000000000000000000013060001090302REFERENCIA SDASSAD            email.empresa@gmail.com                           1
0110599330000459884326000000000000000000000013060001090302REFERENCIA SDASSAD            email.empresa@gmail.com                           1
0110599330000459884326000000000000000000000013060001090302REFERENCIA SDASSAD            email.empresa@gmail.com                           1
0110599330000459884326000000000000000000000013060001090302REFERENCIA SDASSAD            email.empresa@gmail.com                           1
0110599330000459884326000000000000000000000013060001090302REFERENCIA SDASSAD            email.empresa@gmail.com                           1
0110599330000459884326000000000000000000000013060001090302REFERENCIA SDASSAD            email.empresa@gmail.com                           1
0110599330000459884326000000000000000000000013060001090302REFERENCIA SDASSAD            email.empresa@gmail.com                           1
0110599330000459884326000000000000000000000013060001090302REFERENCIA SDASSAD            email.empresa@gmail.com                           1
0110599330000459884326000000000000000000000013060001090302REFERENCIA SDASSAD            email.empresa@gmail.com                           1
0110599330000459884326000000000000000000000013060001090302REFERENCIA SDASSAD            email.empresa@gmail.com                           1
0110599330000459884326000000000000000000000013060001090302REFERENCIA SDASSAD            email.empresa@gmail.com                           1
0110599330000459884326000000000000000000000013060001090302REFERENCIA SDASSAD            email.empresa@gmail.com                           1
0110599330000459884326000000000000000000000013060001090302REFERENCIA SDASSAD            email.empresa@gmail.com                           1
0110599330000459884326000000000000000000000013060001090302REFERENCIA SDASSAD            email.empresa@gmail.com                           1
0110599330000459884326000000000000000000000013060001090302REFERENCIA SDASSAD            email.empresa@gmail.com                           1
0110599330000459884326000000000000000000000013060001090302REFERENCIA SDASSAD            email.empresa@gmail.com                           1
0110599330000459884326000000000000000000000013060001090302REFERENCIA SDASSAD            email.empresa@gmail.com                           1
0110599330000459884326000000000000000000000013060001090302REFERENCIA SDASSAD            email.empresa@gmail.com                           1
0110599330000459884326000000000000000000000013060001090302REFERENCIA SDASSAD            email.empresa@gmail.com                           1
0110599330000459884326000000000000000000000013060001090302REFERENCIA SDASSAD            email.empresa@gmail.com                           1
0110599330000459884326000000000000000000000013060001090302REFERENCIA SDASSAD            email.empresa@gmail.com                           1
0110599330000459884326000000000000000000000013060001090302REFERENCIA SDASSAD            email.empresa@gmail.com                           1
0110599330000459884326000000000000000000000013060001090302REFERENCIA SDASSAD            email.empresa@gmail.com                           1
0110599330000459884326000000000000000000000013060001090302REFERENCIA SDASSAD            email.empresa@gmail.com                           1
0110599330000459884326000000000000000000000013060001090302REFERENCIA SDASSAD            email.empresa@gmail.com                           1
0110599330000459884326000000000000000000000013060001090302REFERENCIA SDASSAD            email.empresa@gmail.com                           1
0110599330000459884326000000000000000000000013060001090302REFERENCIA SDASSAD            email.empresa@gmail.com                           1
0110599330000459884326000000000000000000000013060001090302REFERENCIA SDASSAD            email.empresa@gmail.com                           1
0110599330000459884326000000000000000000000013060001090302REFERENCIA SDASSAD            email.empresa@gmail.com                           1
0110599330000459884326000000000000000000000013060001090302REFERENCIA SDASSAD            email.empresa@gmail.com                           1
0110599330000459884326000000000000000000000013060001090302REFERENCIA SDASSAD            email.empresa@gmail.com                           1
0110599330000459884326000000000000000000000013060001090302REFERENCIA SDASSAD            email.empresa@gmail.com                           1
0110599330000459884326000000000000000000000013060001090302REFERENCIA SDASSAD            email.empresa@gmail.com                           1
0110599330000459884326000000000000000000000013060001090302REFERENCIA SDASSAD            email.empresa@gmail.com                           1
0110599330000459884326000000000000000000000013060001090302REFERENCIA SDASSAD            email.empresa@gmail.com                           1
0110599330000459884326000000000000000000000013060001090302REFERENCIA SDASSAD            email.empresa@gmail.com                           1
0110599330000459884326000000000000000000000013060001090302REFERENCIA SDASSAD            email.empresa@gmail.com                           1
0110599330000459884326000000000000000000000013060001090302REFERENCIA SDASSAD            email.empresa@gmail.com                           1
0110599330000459884326000000000000000000000013060001090302REFERENCIA SDASSAD            email.empresa@gmail.com                           1
0110599330000459884326000000000000000000000013060001090302REFERENCIA SDASSAD            email.empresa@gmail.com                           1
0110599330000459884326000000000000000000000013060001090302REFERENCIA SDASSAD            email.empresa@gmail.com                           1
0110599330000459884326000000000000000000000013060001090302REFERENCIA SDASSAD            email.empresa@gmail.com                           1
0110599330000459884326000000000000000000000013060001090302REFERENCIA SDASSAD            email.empresa@gmail.com                           1
0110599330000459884326000000000000000000000013060001090302REFERENCIA SDASSAD            email.empresa@gmail.com                           1
0110599330000459884326000000000000000000000013060001090302REFERENCIA SDASSAD            email.empresa@gmail.com                           1
0110599330000459884326000000000000000000000013060001090302REFERENCIA SDASSAD            email.empresa@gmail.com                           1
0110599330000459884326000000000000000000000013060001090302REFERENCIA SDASSAD            email.empresa@gmail.com                           1
0110599330000459884326000000000000000000000013060001090302REFERENCIA SDASSAD            email.empresa@gmail.com                           1
0110599330000459884326000000000000000000000013060001090302REFERENCIA SDASSAD            email.empresa@gmail.com                           1
0110599330000459884326000000000000000000000013060001090302REFERENCIA SDASSAD            email.empresa@gmail.com                           1
0110599330000459884326000000000000000000000013060001090302REFERENCIA SDASSAD            email.empresa@gmail.com                           1
0110599330000459884326000000000000000000000013060001090302REFERENCIA SDASSAD            email.empresa@gmail.com                           1
0110599330000459884326000000000000000000000013060001090302REFERENCIA SDASSAD            email.empresa@gmail.com                           1
0110599330000459884326000000000000000000000013060001090302REFERENCIA SDASSAD            email.empresa@gmail.com                           1
0110599330000459884326000000000000000000000013060001090302REFERENCIA SDASSAD            email.empresa@gmail.com                           1
0110599330000459884326000000000000000000000013060001090302REFERENCIA SDASSAD            email.empresa@gmail.com                           1
0110599330000459884326000000000000000000000013060001090302REFERENCIA SDASSAD            email.empresa@gmail.com                           1
0110599330000459884326000000000000000000000013060001090302REFERENCIA SDASSAD            email.empresa@gmail.com                           1
0110599330000459884326000000000000000000000013060001090302REFERENCIA SDASSAD            email.empresa@gmail.com                           1
0110599330000459884326000000000000000000000013060001090302REFERENCIA SDASSAD            email.empresa@gmail.com                           1
0110599330000459884326000000000000000000000013060001090302REFERENCIA SDASSAD            email.empresa@gmail.com                           1
0110599330000459884326000000000000000000000013060001090302REFERENCIA SDASSAD            email.empresa@gmail.com                           1
0110599330000459884326000000000000000000000013060001090302REFERENCIA SDASSAD            email.empresa@gmail.com                           1
0110599330000459884326000000000000000000000013060001090302REFERENCIA SDASSAD            email.empresa@gmail.com                           1
0110599330000459884326000000000000000000000013060001090302REFERENCIA SDASSAD            email.empresa@gmail.com                           1
0110599330000459884326000000000000000000000013060001090302REFERENCIA SDASSAD            email.empresa@gmail.com                           1
0110599330000459884326000000000000000000000013060001090302REFERENCIA SDASSAD            email.empresa@gmail.com                           1
0110599330000459884326000000000000000000000013060001090302REFERENCIA SDASSAD            email.empresa@gmail.com                           1
0110599330000459884326000000000000000000000013060001090302REFERENCIA SDASSAD            email.empresa@gmail.com                           1
0110599330000459884326000000000000000000000013060001090302REFERENCIA SDASSAD            email.empresa@gmail.com                           1
0110599330000459884326000000000000000000000013060001090302REFERENCIA SDASSAD            email.empresa@gmail.com                           1
0110599330000459884326000000000000000000000013060001090302REFERENCIA SDASSAD            email.empresa@gmail.com                           1
0110599330000459884326000000000000000000000013060001090302REFERENCIA SDASSAD            email.empresa@gmail.com                           1
0110599330000459884326000000000000000000000013060001090302REFERENCIA SDASSAD            email.empresa@gmail.com                           1
0110599330000459884326000000000000000000000013060001090302REFERENCIA SDASSAD            email.empresa@gmail.com                           1
0110599330000459884326000000000000000000000013060001090302REFERENCIA SDASSAD            email.empresa@gmail.com                           1
0110599330000459884326000000000000000000000013060001090302REFERENCIA SDASSAD            email.empresa@gmail.com                           1
0110599330000459884326000000000000000000000013060001090302REFERENCIA SDASSAD            email.empresa@gmail.com                           1
0110599330000459884326000000000000000000000013060001090302REFERENCIA SDASSAD            email.empresa@gmail.com                           1
0110599330000459884326000000000000000000000013060001090302REFERENCIA SDASSAD            email.empresa@gmail.com                           1
0110599330000459884326000000000000000000000013060001090302REFERENCIA SDASSAD            email.empresa@gmail.com                           1
0110599330000459884326000000000000000000000013060001090302REFERENCIA SDASSAD            email.empresa@gmail.com                           1
0110599330000459884326000000000000000000000013060001090302REFERENCIA SDASSAD            email.empresa@gmail.com                           1
0110599330000459884326000000000000000000000013060001090302REFERENCIA SDASSAD            email.empresa@gmail.com                           1
0110599330000459884326000000000000000000000013060001090302REFERENCIA SDASSAD            email.empresa@gmail.com                           1
0110599330000459884326000000000000000000000013060001090302REFERENCIA SDASSAD            email.empresa@gmail.com                           1
0110599330000459884326000000000000000000000013060001090302REFERENCIA SDASSAD            email.empresa@gmail.com                           1
0110599330000459884326000000000000000000000013060001090302REFERENCIA SDASSAD            email.empresa@gmail.com                           1
0110599330000459884326000000000000000000000013060001090302REFERENCIA SDASSAD            email.empresa@gmail.com                           1
0110599330000459884326000000000000000000000013060001090302REFERENCIA SDASSAD            email.empresa@gmail.com                           1
0110599330000459884326000000000000000000000013060001090302REFERENCIA SDASSAD            email.empresa@gmail.com                           1
0110599330000459884326000000000000000000000013060001090302REFERENCIA SDASSAD            email.empresa@gmail.com                           1
0110599330000459884326000000000000000000000013060001090302REFERENCIA SDASSAD            email.empresa@gmail.com                           1
0110599330000459884326000000000000000000000013060001090302REFERENCIA SDASSAD            email.empresa@gmail.com                           1
0110599330000459884326000000000000000000000013060001090302REFERENCIA SDASSAD            email.empresa@gmail.com                           1
0110599330000459884326000000000000000000000013060001090302REFERENCIA SDASSAD            email.empresa@gmail.com                           1
0110599330000459884326000000000000000000000013060001090302REFERENCIA SDASSAD            email.empresa@gmail.com                           1
0110599330000459884326000000000000000000000013060001090302REFERENCIA SDASSAD            email.empresa@gmail.com                           1
0110599330000459884326000000000000000000000013060001090302REFERENCIA SDASSAD            email.empresa@gmail.com                           1
0110599330000459884326000000000000000000000013060001090302REFERENCIA SDASSAD            email.empresa@gmail.com                           1
0110599330000459884326000000000000000000000013060001090302REFERENCIA SDASSAD            email.empresa@gmail.com                           1
0110599330000459884326000000000000000000000013060001090302REFERENCIA SDASSAD            email.empresa@gmail.com                           1
0110599330000459884326000000000000000000000013060001090302REFERENCIA SDASSAD            email.empresa@gmail.com                           1
0110599330000459884326000000000000000000000013060001090302REFERENCIA SDASSAD            email.empresa@gmail.com                           1
0110599330000459884326000000000000000000000013060001090302REFERENCIA SDASSAD            email.empresa@gmail.com                           1
0110599330000459884326000000000000000000000013060001090302REFERENCIA SDASSAD            email.empresa@gmail.com                           1
0110599330000459884326000000000000000000000013060001090302REFERENCIA SDASSAD            email.empresa@gmail.com                           1
0110599330000459884326000000000000000000000013060001090302REFERENCIA SDASSAD            email.empresa@gmail.com                           1
0110599330000459884326000000000000000000000013060001090302REFERENCIA SDASSAD            email.empresa@gmail.com                           1
0110599330000459884326000000000000000000000013060001090302REFERENCIA SDASSAD            email.empresa@gmail.com                           1
0110599330000459884326000000000000000000000013060001090302REFERENCIA SDASSAD            email.empresa@gmail.com                           1
0110599330000459884326000000000000000000000013060001090302REFERENCIA SDASSAD            email.empresa@gmail.com                           1
0110599330000459884326000000000000000000000013060001090302REFERENCIA SDASSAD            email.empresa@gmail.com                           1
0110599330000459884326000000000000000000000013060001090302REFERENCIA SDASSAD            email.empresa@gmail.com                           1
0110599330000459884326000000000000000000000013060001090302REFERENCIA SDASSAD            email.empresa@gmail.com                           1
0110599330000459884326000000000000000000000013060001090302REFERENCIA SDASSAD            email.empresa@gmail.com                           1
0110599330000459884326000000000000000000000013060001090302REFERENCIA SDASSAD            email.empresa@gmail.com                           1
0110599330000459884326000000000000000000000013060001090302REFERENCIA SDASSAD            email.empresa@gmail.com                           1
0110599330000459884326000000000000000000000013060001090302REFERENCIA SDASSAD            email.empresa@gmail.com                           1
0110599330000459884326000000000000000000000013060001090302REFERENCIA SDASSAD            email.empresa@gmail.com                           1
0110599330000459884326000000000000000000000013060001090302REFERENCIA SDASSAD            email.empresa@gmail.com                           1
0110599330000459884326000000000000000000000013060001090302REFERENCIA SDASSAD            email.empresa@gmail.com                           1
0110599330000459884326000000000000000000000013060001090302REFERENCIA SDASSAD            email.empresa@gmail.com                           1
0110599330000459884326000000000000000000000013060001090302REFERENCIA SDASSAD            email.empresa@gmail.com                           1
0110599330000459884326000000000000000000000013060001090302REFERENCIA SDASSAD            email.empresa@gmail.com                           1
0110599330000459884326000000000000000000000013060001090302REFERENCIA SDASSAD            email.empresa@gmail.com                           1
0110599330000459884326000000000000000000000013060001090302REFERENCIA SDASSAD            email.empresa@gmail.com                           1
0110599330000459884326000000000000000000000013060001090302REFERENCIA SDASSAD            email.empresa@gmail.com                           1
0110599330000459884326000000000000000000000013060001090302REFERENCIA SDASSAD            email.empresa@gmail.com                           1
0110599330000459884326000000000000000000000013060001090302REFERENCIA SDASSAD            email.empresa@gmail.com                           1
0110599330000459884326000000000000000000000013060001090302REFERENCIA SDASSAD            email.empresa@gmail.com                           1
0110599330000459884326000000000000000000000013060001090302REFERENCIA SDASSAD            email.empresa@gmail.com                           1
0110599330000459884326000000000000000000000013060001090302REFERENCIA SDASSAD            email.empresa@gmail.com                           1
0110599330000459884326000000000000000000000013060001090302REFERENCIA SDASSAD            email.empresa@gmail.com                           1
0110599330000459884326000000000000000000000013060001090302REFERENCIA SDASSAD            email.empresa@gmail.com                           1
0110599330000459884326000000000000000000000013060001090302REFERENCIA SDASSAD            email.empresa@gmail.com                           1
0110599330000459884326000000000000000000000013060001090302REFERENCIA SDASSAD            email.empresa@gmail.com                           1
0110599330000459884326000000000000000000000013060001090302REFERENCIA SDASSAD            email.empresa@gmail.com                           1
0110599330000459884326000000000000000000000013060001090302REFERENCIA SDASSAD            email.empresa@gmail.com                           1
0110599330000459884326000000000000000000000013060001090302REFERENCIA SDASSAD            email.empresa@gmail.com                           1
0110599330000459884326000000000000000000000013060001090302REFERENCIA SDASSAD            email.empresa@gmail.com                           1
0110599330000459884326000000000000000000000013060001090302REFERENCIA SDASSAD            email.empresa@gmail.com                           1
0110599330000459884326000000000000000000000013060001090302REFERENCIA SDASSAD            email.empresa@gmail.com                           1
0110599330000459884326000000000000000000000013060001090302REFERENCIA SDASSAD            email.empresa@gmail.com                           1
0110599330000459884326000000000000000000000013060001090302REFERENCIA SDASSAD            email.empresa@gmail.com                           1
0110599330000459884326000000000000000000000013060001090302REFERENCIA SDASSAD            email.empresa@gmail.com                           1
0110599330000459884326000000000000000000000013060001090302REFERENCIA SDASSAD            email.empresa@gmail.com                           1
0110599330000459884326000000000000000000000013060001090302REFERENCIA SDASSAD            email.empresa@gmail.com                           1
0110599330000459884326000000000000000000000013060001090302REFERENCIA SDASSAD            email.empresa@gmail.com                           1
0110599330000459884326000000000000000000000013060001090302REFERENCIA SDASSAD            email.empresa@gmail.com                           1
0110599330000459884326000000000000000000000013060001090302REFERENCIA SDASSAD            email.empresa@gmail.com                           1
0110599330000459884326000000000000000000000013060001090302REFERENCIA SDASSAD            email.empresa@gmail.com                           1
0110599330000459884326000000000000000000000013060001090302REFERENCIA SDASSAD            email.empresa@gmail.com                           1
0110599330000459884326000000000000000000000013060001090302REFERENCIA SDASSAD            email.empresa@gmail.com                           1
0110599330000459884326000000000000000000000013060001090302REFERENCIA SDASSAD            email.empresa@gmail.com                           1
0110599330000459884326000000000000000000000013060001090302REFERENCIA SDASSAD            email.empresa@gmail.com                           1
0110599330000459884326000000000000000000000013060001090302REFERENCIA SDASSAD            email.empresa@gmail.com                           1
0110599330000459884326000000000000000000000013060001090302REFERENCIA SDASSAD            email.empresa@gmail.com                           1
0110599330000459884326000000000000000000000013060001090302REFERENCIA SDASSAD            email.empresa@gmail.com                           1
0110599330000459884326000000000000000000000013060001090302REFERENCIA SDASSAD            email.empresa@gmail.com                           1
0110599330000459884326000000000000000000000013060001090302REFERENCIA SDASSAD            email.empresa@gmail.com                           1
0110599330000459884326000000000000000000000013060001090302REFERENCIA SDASSAD            email.empresa@gmail.com                           1
0110599330000459884326000000000000000000000013060001090302REFERENCIA SDASSAD            email.empresa@gmail.com                           1
0110599330000459884326000000000000000000000013060001090302REFERENCIA SDASSAD            email.empresa@gmail.com                           1
0110599330000459884326000000000000000000000013060001090302REFERENCIA SDASSAD            email.empresa@gmail.com                           1
0110599330000459884326000000000000000000000013060001090302REFERENCIA SDASSAD            email.empresa@gmail.com                           1
0110599330000459884326000000000000000000000013060001090302REFERENCIA SDASSAD            email.empresa@gmail.com                           1
0110599330000459884326000000000000000000000013060001090302REFERENCIA SDASSAD            email.empresa@gmail.com                           1
0110599330000459884326000000000000000000000013060001090302REFERENCIA SDASSAD            email.empresa@gmail.com                           1
0110599330000459884326000000000000000000000013060001090302REFERENCIA SDASSAD            email.empresa@gmail.com                           1
0110599330000459884326000000000000000000000013060001090302REFERENCIA SDASSAD            email.empresa@gmail.com                           1
0110599330000459884326000000000000000000000013060001090302REFERENCIA SDASSAD            email.empresa@gmail.com                           1
0110599330000459884326000000000000000000000013060001090302REFERENCIA SDASSAD            email.empresa@gmail.com                           1
0110599330000459884326000000000000000000000013060001090302REFERENCIA SDASSAD            email.empresa@gmail.com                           1
0110599330000459884326000000000000000000000013060001090302REFERENCIA SDASSAD            email.empresa@gmail.com                           1
0110599330000459884326000000000000000000000013060001090302REFERENCIA SDASSAD            email.empresa@gmail.com                           1
0110599330000459884326000000000000000000000013060001090302REFERENCIA SDASSAD            email.empresa@gmail.com                           1
0110599330000459884326000000000000000000000013060001090302REFERENCIA SDASSAD            email.empresa@gmail.com                           1
0110599330000459884326000000000000000000000013060001090302REFERENCIA SDASSAD            email.empresa@gmail.com                           1
0110599330000459884326000000000000000000000013060001090302REFERENCIA SDASSAD            email.empresa@gmail.com                           1
0110599330000459884326000000000000000000000013060001090302REFERENCIA SDASSAD            email.empresa@gmail.com                           1
0110599330000459884326000000000000000000000013060001090302REFERENCIA SDASSAD            email.empresa@gmail.com                           1
0110599330000459884326000000000000000000000013060001090302REFERENCIA SDASSAD            email.empresa@gmail.com                           1
0110599330000459884326000000000000000000000013060001090302REFERENCIA SDASSAD            email.empresa@gmail.com                           1
0110599330000459884326000000000000000000000013060001090302REFERENCIA SDASSAD            email.empresa@gmail.com                           1
0110599330000459884326000000000000000000000013060001090302REFERENCIA SDASSAD            email.empresa@gmail.com                           1
0110599330000459884326000000000000000000000013060001090302REFERENCIA SDASSAD            email.empresa@gmail.com                           1
0110599330000459884326000000000000000000000013060001090302REFERENCIA SDASSAD            email.empresa@gmail.com                           1
0110599330000459884326000000000000000000000013060001090302REFERENCIA SDASSAD            email.empresa@gmail.com                           1
0110599330000459884326000000000000000000000013060001090302REFERENCIA SDASSAD            email.empresa@gmail.com                           1
0110599330000459884326000000000000000000000013060001090302REFERENCIA SDASSAD            email.empresa@gmail.com                           1
0110599330000459884326000000000000000000000013060001090302REFERENCIA SDASSAD            email.empresa@gmail.com                           1
0110599330000459884326000000000000000000000013060001090302REFERENCIA SDASSAD            email.empresa@gmail.com                           1
0110599330000459884326000000000000000000000013060001090302REFERENCIA SDASSAD            email.empresa@gmail.com                           1
0110599330000459884326000000000000000000000013060001090302REFERENCIA SDASSAD            email.empresa@gmail.com                           1
0110599330000459884326000000000000000000000013060001090302REFERENCIA SDASSAD            email.empresa@gmail.com                           1
0110599330000459884326000000000000000000000013060001090302REFERENCIA SDASSAD            email.empresa@gmail.com                           1
0110599330000459884326000000000000000000000013060001090302REFERENCIA SDASSAD            email.empresa@gmail.com                           1
0110599330000459884326000000000000000000000013060001090302REFERENCIA SDASSAD            email.empresa@gmail.com                           1
0110599330000459884326000000000000000000000013060001090302REFERENCIA SDASSAD            email.empresa@gmail.com                           1
0110599330000459884326000000000000000000000013060001090302REFERENCIA SDASSAD            email.empresa@gmail.com                           1
0110599330000459884326000000000000000000000013060001090302REFERENCIA SDASSAD            email.empresa@gmail.com                           1
0110599330000459884326000000000000000000000013060001090302REFERENCIA SDASSAD            email.empresa@gmail.com                           1
0110599330000459884326000000000000000000000013060001090302REFERENCIA SDASSAD            email.empresa@gmail.com                           1
0110599330000459884326000000000000000000000013060001090302REFERENCIA SDASSAD            email.empresa@gmail.com                           1
0110599330000459884326000000000000000000000013060001090302REFERENCIA SDASSAD            email.empresa@gmail.com                           1
0110599330000459884326000000000000000000000013060001090302REFERENCIA SDASSAD            email.empresa@gmail.com                           1
0110599330000459884326000000000000000000000013060001090302REFERENCIA SDASSAD            email.empresa@gmail.com                           1
0110599330000459884326000000000000000000000013060001090302REFERENCIA SDASSAD            email.empresa@gmail.com                           1
0110599330000459884326000000000000000000000013060001090302REFERENCIA SDASSAD            email.empresa@gmail.com                           1
0110599330000459884326000000000000000000000013060001090302REFERENCIA SDASSAD            email.empresa@gmail.com                           1
0110599330000459884326000000000000000000000013060001090302REFERENCIA SDASSAD            email.empresa@gmail.com                           1
0110599330000459884326000000000000000000000013060001090302REFERENCIA SDASSAD            email.empresa@gmail.com                           1
0110599330000459884326000000000000000000000013060001090302REFERENCIA SDASSAD            email.empresa@gmail.com                           1
0110599330000459884326000000000000000000000013060001090302REFERENCIA SDASSAD            email.empresa@gmail.com                           1
0110599330000459884326000000000000000000000013060001090302REFERENCIA SDASSAD            email.empresa@gmail.com                           1
0110599330000459884326000000000000000000000013060001090302REFERENCIA SDASSAD            email.empresa@gmail.com                           1
0110599330000459884326000000000000000000000013060001090302REFERENCIA SDASSAD            email.empresa@gmail.com                           1
0110599330000459884326000000000000000000000013060001090302REFERENCIA SDASSAD            email.empresa@gmail.com                           1
0110599330000459884326000000000000000000000013060001090302REFERENCIA SDASSAD            email.empresa@gmail.com                           1
0110599330000459884326000000000000000000000013060001090302REFERENCIA SDASSAD            email.empresa@gmail.com                           1
0110599330000459884326000000000000000000000013060001090302REFERENCIA SDASSAD            email.empresa@gmail.com                           1
0110599330000459884326000000000000000000000013060001090302REFERENCIA SDASSAD            email.empresa@gmail.com                           1
0110599330000459884326000000000000000000000013060001090302REFERENCIA SDASSAD            email.empresa@gmail.com                           1
0110599330000459884326000000000000000000000013060001090302REFERENCIA SDASSAD            email.empresa@gmail.com                           1
0110599330000459884326000000000000000000000013060001090302REFERENCIA SDASSAD            email.empresa@gmail.com                           1
0110599330000459884326000000000000000000000013060001090302REFERENCIA SDASSAD            email.empresa@gmail.com                           1
0110599330000459884326000000000000000000000013060001090302REFERENCIA SDASSAD            email.empresa@gmail.com                           1
0110599330000459884326000000000000000000000013060001090302REFERENCIA SDASSAD            email.empresa@gmail.com                           1
0110599330000459884326000000000000000000000013060001090302REFERENCIA SDASSAD            email.empresa@gmail.com                           1
0110599330000459884326000000000000000000000013060001090302REFERENCIA SDASSAD            email.empresa@gmail.com                           1
0110599330000459884326000000000000000000000013060001090302REFERENCIA SDASSAD            email.empresa@gmail.com                           1
0110599330000459884326000000000000000000000013060001090302REFERENCIA SDASSAD            email.empresa@gmail.com                           1
0110599330000459884326000000000000000000000013060001090302REFERENCIA SDASSAD            email.empresa@gmail.com                           1
0110599330000459884326000000000000000000000013060001090302REFERENCIA SDASSAD            email.empresa@gmail.com                           1
0110599330000459884326000000000000000000000013060001090302REFERENCIA SDASSAD            email.empresa@gmail.com                           1
0110599330000459884326000000000000000000000013060001090302REFERENCIA SDASSAD            email.empresa@gmail.com                           1
0110599330000459884326000000000000000000000013060001090302REFERENCIA SDASSAD            email.empresa@gmail.com                           1
0110599330000459884326000000000000000000000013060001090302REFERENCIA SDASSAD            email.empresa@gmail.com                           1
0110599330000459884326000000000000000000000013060001090302REFERENCIA SDASSAD            email.empresa@gmail.com                           1
0110599330000459884326000000000000000000000013060001090302REFERENCIA SDASSAD            email.empresa@gmail.com                           1
0110599330000459884326000000000000000000000013060001090302REFERENCIA SDASSAD            email.empresa@gmail.com                           1
0110599330000459884326000000000000000000000013060001090302REFERENCIA SDASSAD            email.empresa@gmail.com                           1
0110599330000459884326000000000000000000000013060001090302REFERENCIA SDASSAD            email.empresa@gmail.com                           1
0110599330000459884326000000000000000000000013060001090302REFERENCIA SDASSAD            email.empresa@gmail.com                           1
0110599330000459884326000000000000000000000013060001090302REFERENCIA SDASSAD            email.empresa@gmail.com                           1
0110599330000459884326000000000000000000000013060001090302REFERENCIA SDASSAD            email.empresa@gmail.com                           1
0110599330000459884326000000000000000000000013060001090302REFERENCIA SDASSAD            email.empresa@gmail.com                           1
0110599330000459884326000000000000000000000013060001090302REFERENCIA SDASSAD            email.empresa@gmail.com                           1
0110599330000459884326000000000000000000000013060001090302REFERENCIA SDASSAD            email.empresa@gmail.com                           1
0110599330000459884326000000000000000000000013060001090302REFERENCIA SDASSAD            email.empresa@gmail.com                           1
0110599330000459884326000000000000000000000013060001090302REFERENCIA SDASSAD            email.empresa@gmail.com                           1
0110599330000459884326000000000000000000000013060001090302REFERENCIA SDASSAD            email.empresa@gmail.com                           1
0110599330000459884326000000000000000000000013060001090302REFERENCIA SDASSAD            email.empresa@gmail.com                           1
0110599330000459884326000000000000000000000013060001090302REFERENCIA SDASSAD            email.empresa@gmail.com                           1
0110599330000459884326000000000000000000000013060001090302REFERENCIA SDASSAD            email.empresa@gmail.com                           1
0110599330000459884326000000000000000000000013060001090302REFERENCIA SDASSAD            email.empresa@gmail.com                           1
0110599330000459884326000000000000000000000013060001090302REFERENCIA SDASSAD            email.empresa@gmail.com                           1
0110599330000459884326000000000000000000000013060001090302REFERENCIA SDASSAD            email.empresa@gmail.com                           1
0110599330000459884326000000000000000000000013060001090302REFERENCIA SDASSAD            email.empresa@gmail.com                           1
0110599330000459884326000000000000000000000013060001090302REFERENCIA SDASSAD            email.empresa@gmail.com                           1
0110599330000459884326000000000000000000000013060001090302REFERENCIA SDASSAD            email.empresa@gmail.com                           1
0110599330000459884326000000000000000000000013060001090302REFERENCIA SDASSAD            email.empresa@gmail.com                           1
0110599330000459884326000000000000000000000013060001090302REFERENCIA SDASSAD            email.empresa@gmail.com                           1
0110599330000459884326000000000000000000000013060001090302REFERENCIA SDASSAD            email.empresa@gmail.com                           1
0110599330000459884326000000000000000000000013060001090302REFERENCIA SDASSAD            email.empresa@gmail.com                           1
0110599330000459884326000000000000000000000013060001090302REFERENCIA SDASSAD            email.empresa@gmail.com                           1
0110599330000459884326000000000000000000000013060001090302REFERENCIA SDASSAD            email.empresa@gmail.com                           1
0110599330000459884326000000000000000000000013060001090302REFERENCIA SDASSAD            email.empresa@gmail.com                           1
0110599330000459884326000000000000000000000013060001090302REFERENCIA SDASSAD            email.empresa@gmail.com                           1
0110599330000459884326000000000000000000000013060001090302REFERENCIA SDASSAD            email.empresa@gmail.com                           1
0110599330000459884326000000000000000000000013060001090302REFERENCIA SDASSAD            email.empresa@gmail.com                           1
0110599330000459884326000000000000000000000013060001090302REFERENCIA SDASSAD            email.empresa@gmail.com                           1
0110599330000459884326000000000000000000000013060001090302REFERENCIA SDASSAD            email.empresa@gmail.com                           1
0110599330000459884326000000000000000000000013060001090302REFERENCIA SDASSAD            email.empresa@gmail.com                           1
0110599330000459884326000000000000000000000013060001090302REFERENCIA SDASSAD            email.empresa@gmail.com                           1
0110599330000459884326000000000000000000000013060001090302REFERENCIA SDASSAD            email.empresa@gmail.com                           1
0110599330000459884326000000000000000000000013060001090302REFERENCIA SDASSAD            email.empresa@gmail.com                           1
0110599330000459884326000000000000000000000013060001090302REFERENCIA SDASSAD            email.empresa@gmail.com                           1
0110599330000459884326000000000000000000000013060001090302REFERENCIA SDASSAD            email.empresa@gmail.com                           1
0110599330000459884326000000000000000000000013060001090302REFERENCIA SDASSAD            email.empresa@gmail.com                           1
0110599330000459884326000000000000000000000013060001090302REFERENCIA SDASSAD            email.empresa@gmail.com                           1
0110599330000459884326000000000000000000000013060001090302REFERENCIA SDASSAD            email.empresa@gmail.com                           1
0110599330000459884326000000000000000000000013060001090302REFERENCIA SDASSAD            email.empresa@gmail.com                           1
0110599330000459884326000000000000000000000013060001090302REFERENCIA SDASSAD            email.empresa@gmail.com                           1
0110599330000459884326000000000000000000000013060001090302REFERENCIA SDASSAD            email.empresa@gmail.com                           1
0110599330000459884326000000000000000000000013060001090302REFERENCIA SDASSAD            email.empresa@gmail.com                           1
0110599330000459884326000000000000000000000013060001090302REFERENCIA SDASSAD            email.empresa@gmail.com                           1
0110599330000459884326000000000000000000000013060001090302REFERENCIA SDASSAD            email.empresa@gmail.com                           1
0110599330000459884326000000000000000000000013060001090302REFERENCIA SDASSAD            email.empresa@gmail.com                           1
0110599330000459884326000000000000000000000013060001090302REFERENCIA SDASSAD            email.empresa@gmail.com                           1
0110599330000459884326000000000000000000000013060001090302REFERENCIA SDASSAD            email.empresa@gmail.com                           1
0110599330000459884326000000000000000000000013060001090302REFERENCIA SDASSAD            email.empresa@gmail.com                           1
0110599330000459884326000000000000000000000013060001090302REFERENCIA SDASSAD            email.empresa@gmail.com                           1
0110599330000459884326000000000000000000000013060001090302REFERENCIA SDASSAD            email.empresa@gmail.com                           1
0110599330000459884326000000000000000000000013060001090302REFERENCIA SDASSAD            email.empresa@gmail.com                           1
0110599330000459884326000000000000000000000013060001090302REFERENCIA SDASSAD            email.empresa@gmail.com                           1
0110599330000459884326000000000000000000000013060001090302REFERENCIA SDASSAD            email.empresa@gmail.com                           1
0110599330000459884326000000000000000000000013060001090302REFERENCIA SDASSAD            email.empresa@gmail.com                           1
0110599330000459884326000000000000000000000013060001090302REFERENCIA SDASSAD            email.empresa@gmail.com                           1
0110599330000459884326000000000000000000000013060001090302REFERENCIA SDASSAD            email.empresa@gmail.com                           1
0110599330000459884326000000000000000000000013060001090302REFERENCIA SDASSAD            email.empresa@gmail.com                           1
0110599330000459884326000000000000000000000013060001090302REFERENCIA SDASSAD            email.empresa@gmail.com                           1
0110599330000459884326000000000000000000000013060001090302REFERENCIA SDASSAD            email.empresa@gmail.com                           1
0110599330000459884326000000000000000000000013060001090302REFERENCIA SDASSAD            email.empresa@gmail.com                           1
0110599330000459884326000000000000000000000013060001090302REFERENCIA SDASSAD            email.empresa@gmail.com                           1
0110599330000459884326000000000000000000000013060001090302REFERENCIA SDASSAD            email.empresa@gmail.com                           1
0110599330000459884326000000000000000000000013060001090302REFERENCIA SDASSAD            email.empresa@gmail.com                           1
0110599330000459884326000000000000000000000013060001090302REFERENCIA SDASSAD            email.empresa@gmail.com                           1
0110599330000459884326000000000000000000000013060001090302REFERENCIA SDASSAD            email.empresa@gmail.com                           1
0110599330000459884326000000000000000000000013060001090302REFERENCIA SDASSAD            email.empresa@gmail.com                           1
0110599330000459884326000000000000000000000013060001090302REFERENCIA SDASSAD            email.empresa@gmail.com                           1
0110599330000459884326000000000000000000000013060001090302REFERENCIA SDASSAD            email.empresa@gmail.com                           1
0110599330000459884326000000000000000000000013060001090302REFERENCIA SDASSAD            email.empresa@gmail.com                           1
0110599330000459884326000000000000000000000013060001090302REFERENCIA SDASSAD            email.empresa@gmail.com                           1
0110599330000459884326000000000000000000000013060001090302REFERENCIA SDASSAD            email.empresa@gmail.com                           1
0110599330000459884326000000000000000000000013060001090302REFERENCIA SDASSAD            email.empresa@gmail.com                           1
0110599330000459884326000000000000000000000013060001090302REFERENCIA SDASSAD            email.empresa@gmail.com                           1
0110599330000459884326000000000000000000000013060001090302REFERENCIA SDASSAD            email.empresa@gmail.com                           1
0110599330000459884326000000000000000000000013060001090302REFERENCIA SDASSAD            email.empresa@gmail.com                           1
0110599330000459884326000000000000000000000013060001090302REFERENCIA SDASSAD            email.empresa@gmail.com                           1
0110599330000459884326000000000000000000000013060001090302REFERENCIA SDASSAD            email.empresa@gmail.com                           1
0110599330000459884326000000000000000000000013060001090302REFERENCIA SDASSAD            email.empresa@gmail.com                           1
0110599330000459884326000000000000000000000013060001090302REFERENCIA SDASSAD            email.empresa@gmail.com                           1
0110599330000459884326000000000000000000000013060001090302REFERENCIA SDASSAD            email.empresa@gmail.com                           1
0110599330000459884326000000000000000000000013060001090302REFERENCIA SDASSAD            email.empresa@gmail.com                           1
0110599330000459884326000000000000000000000013060001090302REFERENCIA SDASSAD            email.empresa@gmail.com                           1
0110599330000459884326000000000000000000000013060001090302REFERENCIA SDASSAD            email.empresa@gmail.com                           1
0110599330000459884326000000000000000000000013060001090302REFERENCIA SDASSAD            email.empresa@gmail.com                           1
0110599330000459884326000000000000000000000013060001090302REFERENCIA SDASSAD            email.empresa@gmail.com                           1
0110599330000459884326000000000000000000000013060001090302REFERENCIA SDASSAD            email.empresa@gmail.com                           1
0110599330000459884326000000000000000000000013060001090302REFERENCIA SDASSAD            email.empresa@gmail.com                           1
0110599330000459884326000000000000000000000013060001090302REFERENCIA SDASSAD            email.empresa@gmail.com                           1
0110599330000459884326000000000000000000000013060001090302REFERENCIA SDASSAD            email.empresa@gmail.com                           1
0110599330000459884326000000000000000000000013060001090302REFERENCIA SDASSAD            email.empresa@gmail.com                           1
0110599330000459884326000000000000000000000013060001090302REFERENCIA SDASSAD            email.empresa@gmail.com                           1
0110599330000459884326000000000000000000000013060001090302REFERENCIA SDASSAD            email.empresa@gmail.com                           1
0110599330000459884326000000000000000000000013060001090302REFERENCIA SDASSAD            email.empresa@gmail.com                           1
0110599330000459884326000000000000000000000013060001090302REFERENCIA SDASSAD            email.empresa@gmail.com                           1
0110599330000459884326000000000000000000000013060001090302REFERENCIA SDASSAD            email.empresa@gmail.com                           1
0110599330000459884326000000000000000000000013060001090302REFERENCIA SDASSAD            email.empresa@gmail.com                           1
0110599330000459884326000000000000000000000013060001090302REFERENCIA SDASSAD            email.empresa@gmail.com                           1
0110599330000459884326000000000000000000000013060001090302REFERENCIA SDASSAD            email.empresa@gmail.com                           1
0110599330000459884326000000000000000000000013060001090302REFERENCIA SDASSAD            email.empresa@gmail.com                           1
0110599330000459884326000000000000000000000013060001090302REFERENCIA SDASSAD            email.empresa@gmail.com                           1
0110599330000459884326000000000000000000000013060001090302REFERENCIA SDASSAD            email.empresa@gmail.com                           1
0110599330000459884326000000000000000000000013060001090302REFERENCIA SDASSAD            email.empresa@gmail.com                           1
0110599330000459884326000000000000000000000013060001090302REFERENCIA SDASSAD            email.empresa@gmail.com                           1
0110599330000459884326000000000000000000000013060001090302REFERENCIA SDASSAD            email.empresa@gmail.com                           1
0110599330000459884326000000000000000000000013060001090302REFERENCIA SDASSAD            email.empresa@gmail.com                           1
0110599330000459884326000000000000000000000013060001090302REFERENCIA SDASSAD            email.empresa@gmail.com                           1
0110599330000459884326000000000000000000000013060001090302REFERENCIA SDASSAD            email.empresa@gmail.com                           1
0110599330000459884326000000000000000000000013060001090302REFERENCIA SDASSAD            email.empresa@gmail.com                           1
0110599330000459884326000000000000000000000013060001090302REFERENCIA SDASSAD            email.empresa@gmail.com                           1
0110599330000459884326000000000000000000000013060001090302REFERENCIA SDASSAD            email.empresa@gmail.com                           1
0110599330000459884326000000000000000000000013060001090302REFERENCIA SDASSAD            email.empresa@gmail.com                           1
0110599330000459884326000000000000000000000013060001090302REFERENCIA SDASSAD            email.empresa@gmail.com                           1
0110599330000459884326000000000000000000000013060001090302REFERENCIA SDASSAD            email.empresa@gmail.com                           1
0110599330000459884326000000000000000000000013060001090302REFERENCIA SDASSAD            email.empresa@gmail.com                           1
0110599330000459884326000000000000000000000013060001090302REFERENCIA SDASSAD            email.empresa@gmail.com                           1
0110599330000459884326000000000000000000000013060001090302REFERENCIA SDASSAD            email.empresa@gmail.com                           1
0110599330000459884326000000000000000000000013060001090302REFERENCIA SDASSAD            email.empresa@gmail.com                           1
0110599330000459884326000000000000000000000013060001090302REFERENCIA SDASSAD            email.empresa@gmail.com                           1
0110599330000459884326000000000000000000000013060001090302REFERENCIA SDASSAD            email.empresa@gmail.com                           1
0110599330000459884326000000000000000000000013060001090302REFERENCIA SDASSAD            email.empresa@gmail.com                           1
0110599330000459884326000000000000000000000013060001090302REFERENCIA SDASSAD            email.empresa@gmail.com                           1
0110599330000459884326000000000000000000000013060001090302REFERENCIA SDASSAD            email.empresa@gmail.com                           1
0110599330000459884326000000000000000000000013060001090302REFERENCIA SDASSAD            email.empresa@gmail.com                           1
0110599330000459884326000000000000000000000013060001090302REFERENCIA SDASSAD            email.empresa@gmail.com                           1
0110599330000459884326000000000000000000000013060001090302REFERENCIA SDASSAD            email.empresa@gmail.com                           1
0110599330000459884326000000000000000000000013060001090302REFERENCIA SDASSAD            email.empresa@gmail.com                           1
0110599330000459884326000000000000000000000013060001090302REFERENCIA SDASSAD            email.empresa@gmail.com                           1
0110599330000459884326000000000000000000000013060001090302REFERENCIA SDASSAD            email.empresa@gmail.com                           1
0110599330000459884326000000000000000000000013060001090302REFERENCIA SDASSAD            email.empresa@gmail.com                           1
0110599330000459884326000000000000000000000013060001090302REFERENCIA SDASSAD            email.empresa@gmail.com                           1
0110599330000459884326000000000000000000000013060001090302REFERENCIA SDASSAD            email.empresa@gmail.com                           1
0110599330000459884326000000000000000000000013060001090302REFERENCIA SDASSAD            email.empresa@gmail.com                           1
0110599330000459884326000000000000000000000013060001090302REFERENCIA SDASSAD            email.empresa@gmail.com                           1
0110599330000459884326000000000000000000000013060001090302REFERENCIA SDASSAD            email.empresa@gmail.com                           1
0110599330000459884326000000000000000000000013060001090302REFERENCIA SDASSAD            email.empresa@gmail.com                           1
0110599330000459884326000000000000000000000013060001090302REFERENCIA SDASSAD            email.empresa@gmail.com                           1
0110599330000459884326000000000000000000000013060001090302REFERENCIA SDASSAD            email.empresa@gmail.com                           1
0110599330000459884326000000000000000000000013060001090302REFERENCIA SDASSAD            email.empresa@gmail.com                           1
0110599330000459884326000000000000000000000013060001090302REFERENCIA SDASSAD            email.empresa@gmail.com                           1
0110599330000459884326000000000000000000000013060001090302REFERENCIA SDASSAD            email.empresa@gmail.com                           1
0110599330000459884326000000000000000000000013060001090302REFERENCIA SDASSAD            email.empresa@gmail.com                           1
0110599330000459884326000000000000000000000013060001090302REFERENCIA SDASSAD            email.empresa@gmail.com                           1
0110599330000459884326000000000000000000000013060001090302REFERENCIA SDASSAD            email.empresa@gmail.com                           1
0110599330000459884326000000000000000000000013060001090302REFERENCIA SDASSAD            email.empresa@gmail.com                           1
0110599330000459884326000000000000000000000013060001090302REFERENCIA SDASSAD            email.empresa@gmail.com                           1
0110599330000459884326000000000000000000000013060001090302REFERENCIA SDASSAD            email.empresa@gmail.com                           1
0110599330000459884326000000000000000000000013060001090302REFERENCIA SDASSAD            email.empresa@gmail.com                           1
0110599330000459884326000000000000000000000013060001090302REFERENCIA SDASSAD            email.empresa@gmail.com                           1
0110599330000459884326000000000000000000000013060001090302REFERENCIA SDASSAD            email.empresa@gmail.com                           1
0110599330000459884326000000000000000000000013060001090302REFERENCIA SDASSAD            email.empresa@gmail.com                           1
0110599330000459884326000000000000000000000013060001090302REFERENCIA SDASSAD            email.empresa@gmail.com                           1
0110599330000459884326000000000000000000000013060001090302REFERENCIA SDASSAD            email.empresa@gmail.com                           1
0110599330000459884326000000000000000000000013060001090302REFERENCIA SDASSAD            email.empresa@gmail.com                           1
0110599330000459884326000000000000000000000013060001090302REFERENCIA SDASSAD            email.empresa@gmail.com                           1
0110599330000459884326000000000000000000000013060001090302REFERENCIA SDASSAD            email.empresa@gmail.com                           1
0110599330000459884326000000000000000000000013060001090302REFERENCIA SDASSAD            email.empresa@gmail.com                           1
0110599330000459884326000000000000000000000013060001090302REFERENCIA SDASSAD            email.empresa@gmail.com                           1
0110599330000459884326000000000000000000000013060001090302REFERENCIA SDASSAD            email.empresa@gmail.com                           1
0110599330000459884326000000000000000000000013060001090302REFERENCIA SDASSAD            email.empresa@gmail.com                           1
0110599330000459884326000000000000000000000013060001090302REFERENCIA SDASSAD            email.empresa@gmail.com                           1
