0110599330000459884326306000109030000000000000000000000102                                                                                1
0110599330000459884326306000109030000000000000000000000102REFERENCIA SDASSAD                                                              1
0110599330000459884326306000109030000000000000000000000102                              email.empresa@gmail.com                           1
0110599330000459884326306000109030000000000000000000000102REFERENCIA SDASSAD            email.empresa@gmail.com                           1
0110599330000459884326306000109030000000000000000000000102REFERENCIA SDASSAD            email.empresa@gmail.com                           1
0110599330000459884326306000109030000000000000000000000102REFERENCIA SDASSAD            email.empresa@gmail.com                           1
0110599330000459884326306000109030000000000000000000000102REFERENCIA SDASSAD            email.empresa@gmail.com                           1
0110599330000459884326306000109030000000000000000000000102REFERENCIA SDASSAD            email.empresa@gmail.com                           1
                                                                                                                                      00008