01105993300004598843260000000000000000000000102REFERENCIA SDASSAD            email.empresa@gmail.com                           1
01105993300004598843260000000000000000000000102REFERENCIA SDASSAD            email.empresa@gmail.com                           1
01105993300004598843260000000000000000000000102REFERENCIA SDASSAD            email.empresa@gmail.com                           1
01105993300004598843260000000000000000000000102REFERENCIA SDASSAD            email.empresa@gmail.com                           1
01105993300004598843260000000000000000000000102REFERENCIA SDASSAD            email.empresa@gmail.com                           1
01105993300004598843260000000000000000000000102REFERENCIA SDASSAD            email.empresa@gmail.com                           1
01105993300004598843260000000000000000000000102REFERENCIA SDASSAD            email.empresa@gmail.com                           1
01105993300004598843260000000000000000000000102REFERENCIA SDASSAD            email.empresa@gmail.com                           1
                                                                                                                                      00008